:100000004C57040000000000000000000000000049
:1000100000000000000000000000000000000000E0
:1000200000000000000000000000000000000000D0
:100030000000000024560000000000000000000046
:1000400000000000000000000000000000000000B0
:1000500000000000D2570000000000000000000077
:100060000000000000000000000000000000000090
:100070000000000000000000000000000000000080
:100080000000000000000000000000000000000070
:100090000000000000000000000000000000000060
:1000A00042560000000000000000000000000000B8
:1000B0000000000000000000000000000000000040
:1000C0000000000000000000000000000000000030
:1000D0000000000000000000000000000000000020
:1000E0000000000000000000000000000000000010
:10AE9800AFE42100F07F220020A0B70010002000BE
:10AEA80034A0B700400020004420B7001E5802001C
:10AEB8000000000028580200000000008A1F7800E7
:10AEC8008B1F78008C1F78005BFB07000A58220054
:10AED8000B00200092FC07000A5822000B002000FB
:10AEE800C6FE070061FD070014FD07000B002000E7
:10AEF8000C0224008A9120000020EF000220EF00BD
:10AF0800809FBE000000200001F82300809FBE0043
:10AF18000000200001F02300809FBE0085FD07008F
:10AF2800CF00B1000B0020000C2224008A912000E1
:10AF380076FC07000B0020000CF823008A8D200007
:10AF480000002000011F2400809FBE00D0CC2C00F0
:10AF5800C1DC2300809FBE000000200001F0230018
:10AF6800809FBE00CEFB0700CF00B10076FB070034
:10AF7800B8FB07008AFE07008AD121003DFE0700C2
:10AF88005AFE0700FFFC0700FEFF37004F06780057
:0CAF9800CF0578004F057800FFFF370060
:109C40008A1F78008B1F78008C1F7800C002A80044
:109C5000C022A800C842A800C862A800D002A8007C
:109C6000D022A80042FC0700C122A8002D23A80092
:109C7000D082A8002C83A800C082A800C482A800BB
:109C8000C882A800CC82A800C102A900C502A80011
:109C9000D0E2A900D4E2A800D0C2A900D4C2A90091
:109CA000D102A900D502A800C982A900CD82A900CD
:109CB000C8A2A900CCA2A90024FC0700DCC0B30004
:109CC0001BC0B3009AC0B30085FC07003CC0B300C2
:109CD0001620EF008AC0B30081FC0700FCC0B3006F
:109CE0001BC0B300BAC0B3007DFC07005CC0B3006A
:109CF0001620EF00AAC0B30079FC07002CC1B30006
:109D00001620EF009AC1B30075FC07003CC1B300F8
:109D10001620EF006AC1B30071FC07004CC1B3000C
:109D20001620EF007AC0B3006DFC07005CC1B300E1
:109D30001620EF006AC0B30069FC07008FE9070036
:109D40004F067800CF0578004F0578000000060028
:108D70000000FA00A0892000B0E88800000E200062
:108D800020A3B7002223EF00F0F3210024A3B700B3
:108D90003023EF0021E3A8000080FA000000060065
:108D4C000000FA002174200062042000730520004A
:108D5C00824878008348780042C7A9000080FA0056
:048D6C0000000600FD
:108EE0000000FA008D1F78001A20EF00FFF3070042
:0C8EF000CF0678000080FA0000000600A9
:105EEC000000FA007954E100020036000020EF00B7
:105EFC00BF013700605CE10089003A001A00E20043
:105F0C00010032008E0B07004E003700006C2000A1
:105F1C000C4878007F003700106C20000C4878008B
:105F2C007C003700206C20000C487800790037008A
:105F3C00306C20000C48780076003700406C200054
:105F4C000C48780073003700506C20000C48780027
:105F5C0070003700606C20000C4878006D00370032
:105F6C00706C20000C4878006A003700806C2000B0
:105F7C000C48780067003700906C20000C487800C3
:105F8C0064003700A06C20000C48780061003700DA
:105F9C00B06C20000C4878005E003700C06C20000C
:105FAC000C4878005B003700D06C20000C4878005F
:105FBC0058003700E06C20000C4878005500370082
:105FCC00F06C20000C48780052003700006D200067
:105FDC000C4878004F003700106D20000C487800FA
:105FEC004C003700206D20000C4878004900370029
:105FFC00306D20000C48780046003700406D2000C2
:10600C000C48780043003700506D20000C48780095
:10601C0040003700606D20000C4878003D003700D0
:10602C00706D20000C4878003A003700806D20001D
:10603C000C48780037003700906D20000C48780031
:10604C00340037006054E100B0FF32006154E100CD
:10605C00B1FF32006254E100B2FF32006354E10040
:10606C00B3FF32006454E100B4FF32006554E10028
:10607C00B5FF32006654E100B6FF32006754E10010
:10608C00B7FF32006854E100B8FF32006954E100F8
:10609C00B9FF32006A54E100BAFF32006B54E100E0
:1060AC00BBFF32006C54E100BCFF32006D54E100C8
:1060BC00BDFF32006E54E100BEFF32006F54E100B0
:1060CC00BFFF32007054E100C0FF32007154E10098
:1060DC00C1FF32007254E100C2FF32007354E10080
:1060EC00C3FF32007454E100C4FF32007554E10068
:1060FC00C5FF32007654E100C6FF32007754E10050
:10610C00C7FF32007854E100C8FF32007954E10037
:10611C00C9FF32001A00E2000100320094F80700B7
:10612C00615CE1007A003A001A00E20001003200E2
:10613C00030B070045003700106820000A48780060
:10614C0070003700206820000A4878006D00370086
:10615C00606820000A4878006A00370070682000E8
:10616C000A48780067003700806820000A487800E9
:10617C0064003700906820000A48780061003700FE
:10618C00E06820000A4878005E003700F0682000C4
:10619C000A4878005B003700006920000A48780044
:1061AC0058003700106920000A4878005500370065
:1061BC00206920000A4878005200370060692000EE
:1061CC000A4878004F003700706920000A487800B0
:1061DC004C003700406A20000A487800490037001C
:1061EC00506A20000A48780046003700606A200098
:1061FC000A48780043003700706A20000A4878008B
:10620C0040003700806A20000A4878003D003700C3
:10621C00906A20000A4878003A003700A06A2000F3
:10622C000A48780037003700C06A20000A48780016
:10623C0034003700D06A20000A487800310037005B
:10624C00E06A20000A4878002E0037006064E10004
:10625C00B9FF32006164E100BAFF32006264E10010
:10626C00BBFF32006364E100BCFF32006464E100F8
:10627C00BDFF32006564E100BEFF32006664E100E0
:10628C00BFFF32006764E100C0FF32006864E100C8
:10629C00C1FF32006964E100C2FF32006A64E100B0
:1062AC00C3FF32006B64E100C4FF32006C64E10098
:1062BC00C5FF32006D64E100C6FF32006E64E10080
:1062CC00C7FF32006F64E100C8FF32007064E10068
:1062DC00C9FF32007164E100CAFF32007264E10050
:1062EC00CBFF32007364E100CCFF32007464E10038
:1062FC00CDFF32007564E100CEFF32007664E10020
:10630C00CFFF32001A00E2000100320018F807003B
:10631C00820037001600AE00C802A9001600AF00BC
:10632C00C802A800B10037001600AE00C822A900B0
:10633C001600AF00C822A800AC0037001600AE0053
:10634C00C842A9001600AF00C842A800A700370039
:10635C001600AE00C862A9001600AF00C862A80003
:10636C00A20037001600AE00C882A9001600AF00CC
:10637C00C882A8009D0037001600AE00C8A2A90074
:10638C001600AF00C8A2A800980037001600AE0097
:10639C00C8C2A9001600AF00C8C2A80093003700FD
:1063AC001600AE00C8E2A9001600AF00C8E2A800B3
:1063BC008E0037001600AE00C902A9001600AF000F
:1063CC00C902A800890037001600AE00C922A90036
:1063DC001600AF00C922A800840037001600AE00DA
:1063EC00C942A9001600AF00C942A8007F003700BF
:1063FC001600AE00C962A9001600AF00C962A80061
:10640C007A0037001600AE00C982A9001600AF0052
:10641C00C982A800750037001600AE00C9A2A900F9
:10642C001600AF00C9A2A800700037001600AE001D
:10643C00C9C2A9001600AF00C9C2A8006B00370082
:10644C001600AE00C9E2A9001600AF00C9E2A80010
:10645C00660037001600AE00D002A9001600AF008F
:10646C00D002A800610037001600AE00D022A900AF
:10647C001600AF00D022A8005C0037001600AE005A
:10648C00D042A9001600AF00D042A8005700370038
:10649C001600AE00D062A9001600AF00D062A800B2
:1064AC00520037001600AE00D082A9001600AF00D3
:1064BC00D082A8004D0037001600AE00D0A2A90073
:1064CC001600AF00D0A2A800480037001600AE009E
:1064DC00D0C2A9001600AF00D0C2A80043003700FC
:1064EC001600AE00D0E2A9001600AF00D0E2A80062
:1064FC003E0037001600AE00D102A9001600AF0016
:10650C00D102A800390037001600AE00D122A90034
:10651C001600AF00D122A800340037006054E1000F
:10652C007CFF32006154E1007FFF32006254E100D5
:10653C0082FF32006354E10085FF32006454E100B5
:10654C0088FF32006554E1008BFF32006654E10095
:10655C008EFF32006754E10091FF32006854E10075
:10656C0094FF32006954E10097FF32006A54E10055
:10657C009AFF32006B54E1009DFF32006C54E10035
:10658C00A0FF32006D54E100A3FF32006E54E10015
:10659C00A6FF32006F54E100A9FF32007054E100F5
:1065AC00ACFF32007154E100AFFF32007254E100D5
:1065BC00B2FF32007354E100B5FF32007454E100B5
:1065CC00B8FF32007554E100BBFF32007654E10095
:1065DC00BEFF32007754E100C1FF32007854E10075
:1065EC00C4FF32007954E100C7FF3200F00F2000E5
:0865FC000080FA000000060017
:10437C000000FA0021742000620420007305200064
:10438C00824878008348780042C7A8000080FA0071
:04439C000000060017
:10A128000800FA00C0852000B0428800800325009E
:10A13800A0428800E0022500C0428800F0FF2F00FE
:10A14800D04288002022EF000000280022A2B70099
:10A158002062A900E5FD07000001BE00803E200046
:10A1680001002000D8FD07000001BE00B0FE070076
:10A178004100DE0064004000800078006000470075
:10A188000A88BE008100E900030035001018D000DD
:10A198001090D200FBFF3700829FBE008A9FBE004E
:10A1A8000200BE000E0190009E0190000002EB002C
:10A1B800D1FD07004F05BE004F01BE0020079800E3
:10A1C800310798008A9FBE000200BE000E01900071
:10A1D8009E0190000002EB00F3FD07004F05BE0052
:10A1E8008001780001027800600047005001D1002A
:10A1F800C080D300640047003008E1002090E100EF
:10A208000700310061804100E0004A0080027800C8
:10A218000103780005017800860178000200370004
:10A2280003017800840178000280710033003A004D
:10A23800AEFD07000001BE00803E200001002000A6
:10A24800A1FD07000001BE0079FE07004100DE0005
:10A2580000A0EC0080007800600047000A88BE007B
:10A268008100E900030035001018D0001090D200DA
:10A27800FBFF3700829FBE000200BE000E01900067
:10A288009E0190000002EB009BFD07004F01BE00FD
:10A2980020079800310798000200BE000E019000C8
:10A2A8009E0190000002EB00BFFD070080017800CE
:10A2B80001027800600047005001D100C080D3003F
:10A2C800640047003008E1002090E10007003100F9
:10A2D80061804100E0004A008002780001037800B4
:10A2E8000501780086017800020037000301780034
:10A2F800840178002062A800000037006100510046
:10A30800E0805900401188002222A90021E2A8001B
:10A318002342A8003FFE07003EFE07000080FA0027
:04A32800000006002B
:0C98F40000E82300010020000000060036
:089C38002000200000000600DE
:109C1C0058002000B71A21000E20ED00FEFF3A007C
:0C9C2C001020ED00FCFF3A0000000600D4
:1098D0000000FA00020AB800500088000200B80038
:1098E00081004200032AB800810042000080FA0093
:0498F000000006006E
:109900000000FA0002000700D44C04000000000030
:109910000800E20002003A00100007000000060004
:10992000811F78000200E20002003D00600010008C
:10993000E08018000600E20002003D006001110016
:10994000E0811900050007004F00E00002003B0025
:1099500060001000E0801800000006000200070010
:109960000480BE00000006006022B800060220004D
:109970000000D0008180D2000482D2008582D20013
:109980000000A8000202520083825A0003003B003C
:109990000202420083824A000000A1000603E9009F
:1099A000F3FF3A00000006000080FA000000060005
:1099B0000000FA0002000700264D0400000000002D
:1099C0000800E20002003A00100007000000060054
:1099D000839F68000200E20002003D00600010006A
:1099E000E08018000600E20002003D006001110066
:1099F000E0811900050007004F00E00002003B0075
:109A000060001000E0801800000006006022B8002E
:109A1000060220000000D0008180D2000482D20023
:109A20008582D2000000A8000202520083825A0000
:109A300003003B000202420083824A000000A100B2
:109A40000603E900F3FF3A00000006000080FA0078
:049A5000000006000C
:10AA04000800FA00E0842000B042880060192500A4
:10AA1400A0428800F0FF2F00C0428800F0FF2F0002
:10AA2400D04288003022EF000000280032A2B70094
:10AA34003062A900AEFB07000001BE00803E20008A
:10AA440001002000A1FB07000001BE0079FC070003
:10AA54004100DE0064004000800078006000470090
:10AA64000A88BE008100E900030035001018D000F8
:10AA74001090D200FBFF3700829FBE008A9FBE0069
:10AA84000200BE000E0190009E0190000002EB0047
:10AA94009AFB07004F05BE004F01BE002007980037
:10AAA400310798008A9FBE000200BE000E0190008C
:10AAB4009E0190000002EB00BCFB07004F05BE00A6
:10AAC4008001780001027800600047005001D10045
:10AAD400C080D300640047003008E1002090E1000A
:10AAE4000700310061804100E0004A0080027800E4
:10AAF4000103780005017800860178000200370020
:10AB040003017800840178000280710033003A0068
:10AB140077FB07000001BE00803E200001002000FA
:10AB24006AFB07000001BE0042FC07004100DE0092
:10AB340000A0EC0080007800600047000A88BE0096
:10AB44008100E900030035001018D0001090D200F5
:10AB5400FBFF3700829FBE000200BE000E01900082
:10AB64009E0190000002EB0064FB07004F01BE0051
:10AB740020079800310798000200BE000E019000E3
:10AB84009E0190000002EB0088FB07008001780022
:10AB940001027800600047005001D100C080D3005A
:10ABA400640047003008E1002090E1000700310014
:10ABB40061804100E0004A008002780001037800CF
:10ABC400050178008601780002003700030178004F
:10ABD400840178003062A800000037006100510051
:10ABE400E0805900C01188003222A90031E2A80097
:10ABF4003342A80008FC070007FC07000080FA00A5
:04AC04000000060046
:10A474008A1F78008B1F78008C1F780041552100BB
:10A484000020EF0080487800515521000020EF00A3
:10A4940080487800E1C521000020EF008048780062
:10A4A400F1C521000020EF008048780041D121004F
:10A4B4000020EF00804878004C0B20001620EF00AD
:10A4C4000AC62100F4FC07000820EF006F20E10019
:10A4D40008003D00400B20000401B80080AC2000BF
:10A4E400820040000020EF00804878000820EC0043
:10A4F400F6FF37000820EF006A20E10008003D0065
:10A50400400B20000401B800605521008200400087
:10A514000020EF00804878000820EC00F6FF3700A8
:10A5240097C0A80087C0A9004F067800CF0578001F
:08A534004F057800000006004D
:10989C000000FA000A0178008C0078006100560084
:1098AC00000678000200E200030032000B49780049
:1098BC000420EC00F8FF37000A0078000080FA0062
:0498CC000000060092
:10A344008A1F78008B1F78008C1F78008D1F78007F
:10A354001A20EF001820EF001B0020002A2C2000F8
:10A364000058220001002000809FBE00B8FD0700B5
:10A374004F00B100CF0678004F067800CF05780073
:08A384004F05780000000600FF
:109A54000400FA003EBB9700CEBB97002A4388005F
:109A6400E086200062084500100020000B01DD00A4
:109A74004243880001862000020078008088EA00C2
:109A8400100020000C00DD001043880061862000D7
:109A94008088EA00620055001008710020438000AD
:109AA40062015000920078006086200010896000F6
:109AB4000020EF00804388001A00E2000200320018
:109AC400008720001088EA00804380006000E100E5
:109AD40006003200204380001001780061862000D7
:109AE40070438000110861000500370020438000A6
:109AF4001001780021862000704380001108710055
:109B04007BFF0700823E2000030020006FFF070058
:109B14000002BE0047000700849FBE008000EB00E7
:109B24000601BE0069FF07004F02BE00000798004F
:109B340011079800809FBE000E0090009E009000C8
:109B44000003BE004F00BE00829FBE000E019000C5
:109B54009E019000869FBE00849FBE000400BE004C
:109B64000002EB0091FF07004F02BE004F03BE004E
:109B74004F01BE000004BE00F2FF2F00F3FF2000DF
:109B84000200E1000388E1000200360020C0B300B7
:109B94001F0037005843880069438800869FBE0031
:109BA4000400BE000601BE000002EB0053FF0700E4
:109BB4004F03BE008701D1000681D3000200E100FB
:109BC4000388E10005003600110020000200200097
:109BD400A08620001098400010104900A0862000A4
:109BE400D001D1004081D300E2428800F3428800D2
:109BF40040072000010020000010E1000198E1006E
:109C04000200310010C0B300010037000020EF0053
:089C14000080FA0000000600C8
:10A53C008200FA008B1F78008C1F78008D1F78002A
:10A54C00BEB897004EB997009EB997002EBA9700E7
:10A55C00FEB297000EBB97000B1D78000C1578000F
:10A56C00640045000118780002107800680045006E
:10A57C0003187800041078006C004500051878006A
:10A58C0006107800700145000020EF000220EF005B
:10A59C000089BE00740145000020EF000220EF008E
:10A5AC000089BE00780145000020EF000220EF007A
:10A5BC000089BE007C0145000020EF000220EF0066
:10A5CC000089BE0000022000000145000020EF00C1
:10A5DC000220EF000089BE0080022000000145002F
:10A5EC0000002000010024000089BE00C0022000F1
:10A5FC000001450000002000010424000089BE0079
:10A60C00C00220000001450080022000000045002F
:10A61C00E00047008A1F7800B21F7800A21F780064
:10A62C00B01F7800A01F780030962800801F78009B
:10A63C00811F780023FB0700CF00B1004F05780085
:10A64C00000320000001450000002000012224002E
:10A65C000089BE008A1F78001D0020001C0020000D
:10A66C008A3821000B00200020002000801F780079
:10A67C00A8FB07002F00B100CF80DE000081EB00AB
:10A68C00C3E70700F2512800B3F6230039DF0700B7
:10A69C0076E407004F05780000017800821F7800EF
:10A6AC008A1F78001D0020002C0020008A38210011
:10A6BC000B00200020002000801F780095FB070075
:10A6CC002F00B1004F0578004F01780040032000A7
:10A6DC0000004500008798008A1F7800020078006F
:10A6EC00CF80DE000081EB00A9E707000E8190000F
:10A6FC000089BE001AC0B30075FB07002AC0B30066
:10A70C0073FB07004F057800800320008000450094
:10A71C000020EF0080087800A00320008000450096
:10A72C000020EF0080087800A00320000000450006
:10A73C001001780080032000000045001000780014
:10A74C00E00047008A1F7800821F7800801F780085
:10A75C0040BD2800801F7800811F7800D9FA0700BF
:10A76C008F00B1004F057800C00320008000450029
:10A77C00F0FF2F0080087800CF0678004F06780095
:0CA78C00CF0578000080FA0000000600F5
:1092D0000200FA008A1F78008B1F78008C1F78002C
:1092E0004EB99700E00047006A00570080087800F8
:1092F000821F780001067800BEBD97000205780045
:10930000A1F507004F01780080017800800041003E
:109310000020EF0080487800030078004F067800B6
:10932000CF0578004F0578000080FA0000000600A5
:106988002400FA0000002000500F98008B007800C7
:10699800618045008005780011407800204F9800FC
:1069A8000040E2003A083200AE48900050C2B300FE
:1069B800000CE100080032002E489000004D7800DD
:1069C8006100450000057800DE0890007A00470065
:1069D80061884000EDFF37000020EF006007980055
:1069E8000020EF00700798001F003700FE0090009D
:1069F8006E00470068887000618045008005780057
:106A08002E003700FE0090006E004700618870007D
:106A1800618045008005780028003700FE0090005E
:106A28006E0047006288700061804500800578002C
:106A3800220037007E019000018020006E00470090
:106A48000108710061804500800578001B0037004F
:106A5800FE0090006E004700648870006180450069
:106A680080057800150037009B407800D0C2B3003D
:106A7800000CE100DDFF32009B40780000C2B3004B
:106A8800000CE100DFFF32009B407800B0C2B30089
:106A9800000CE100E1FF32009B40780030C2B300F7
:106AA800000CE100E3FF32009B40780000C3B30014
:106AB800000CE100E6FF320001003700CAFF370092
:106AC8006E0047001010A60004003700E2FF2F00F8
:106AD800EE0047006E004700110861006E00470095
:106AE8001030A60004003700B2FF2F00EE00470068
:106AF8006E004700110861001B4078000080FB0011
:106B08008A1F78000045780041F207004F05780099
:106B18000000E200160032000020EF006007980035
:106B2800EE009000A00020000089B9001B4078000A
:106B38000080FB0000014100010320006C004700B9
:106B48000108510061804500800578001B407800ED
:106B58000080FB008A1F7800004578002CF20700AF
:106B68004F0578000000E200EDFF3A000D00370005
:106B78009B407800A0C2B300000CE10009003A0075
:106B88008C0078001C00780000A0ED00000E780052
:106B980011007800100078006007980061804500B7
:106BA800800578009B407800E0C2B300000CE1004B
:106BB80027003A0061804500800578009B407800F6
:106BC800A0C2B300000CE1000A003A008C00780073
:106BD8001C00780000A0ED00000E7800110078007D
:106BE8001000780040079800618045008005780013
:106BF800160037000020EF00400798001B4078007F
:106C08000080FB008A1F78000045780000F207002A
:106C18004F0578000000E2000C003200CE00900022
:106C2800A00020000089B9001B4078000080FB000C
:106C380000014100010320006800470001085100DD
:106C48006180450080057800ECFF370006003700BA
:106C58000020EF00400798007E019000010021000D
:106C68006E004700010871008B00780061804500C4
:106C78008005780011407800204F98009700370071
:106C88005E08900083073700FE0090006E00470002
:106C980070887000F4FF37007E01900001402000EA
:106CA8006E00470001087100CC0037000202200086
:106CB800EE0047006E004700110871007E01900049
:106CC800011020006E00470001087100C300370062
:106CD8007E019000012020006E004700010871002D
:106CE800BE00370002042000EE0047006E00470097
:106CF80011087100B9003700B800370002022000FF
:106D0800EE0047006E0047001108710002082000DD
:106D1800EE0047006E00470011087100AF00370011
:106D28008C0078001C00780000A0ED00000E7800B0
:106D38001100780010007800300F98006000E10022
:106D480002003A00D0832000300F98000020EF00A6
:106D5800400F9800BE08900078004700108040005F
:106D68001004E000040032004E0890000020EC00FF
:106D7800400F9800F7FF3700680047001000E00058
:106D880006003200CE009000780047001008E100AD
:106D9800020031004E009000400F9800EE00900075
:106DA800780047001008E100050036006E019000E9
:106DB800F80047006C004700110851000200370036
:106DC8000020EF00600798006E0047001030A70011
:106DD8000E0037006E019000EE0090006C00470036
:106DE800618850000400E2000800320000C2B300CD
:106DF800004D78006100450000057800DE0890002D
:106E08007A00470061884000F2FF3700CE08900002
:106E18004E0890000020ED00400F98000200E200AC
:106E28000B0032003E089000104D780061004500CC
:106E3800000578003E0890000020EC00300F980014
:106E4800DE0890007A00470061884000EFFF3700B5
:106E58006E0047001030A6000E0037006E0190004B
:106E6800EE0090006C004700618850000400E200CA
:106E78000800320000C2B300004D780061004500F0
:106E880000057800DE0890007A004700618840001D
:106E9800F2FF3700BDFE37008C0078001C00780038
:106EA80000A0ED00000E78001100780010007800B6
:106EB800204F98006A004700300F9800100020000B
:106EC800400F9800ACFF3700020C2000EE0047008E
:106ED8006E00470011087100400037002E489000EE
:106EE8006004E10066FF3200AE489000C0C6B300FF
:106EF800000CE10064FF3200AE489000C0C4B3004B
:106F0800000CE10060FF3200AE48900060C6B3009C
:106F1800000CE10060FF3200AE48900050C4B3009E
:106F2800000CE10061FF3200AE48900050C6B3008B
:106F3800000CE10061FF3200AE48900070C6B3005B
:106F4800000CE10062FF3200AE489000F0C6B300CA
:106F5800000CE10063FF3200AE48900040C6B30069
:106F6800000CE10064FF3200AE48900090C6B30008
:106F7800000CE10060FF3200AE48900000C7B3008B
:106F8800000CE1005DFF3200AE48900080C5B30000
:106F9800000CE10059FF3200AE48900080C7B300F2
:106FA800000CE10059FF3200AE48900030C7B30032
:106FB800000CE1005AFF3200AE48900030C6B30022
:106FC800000CE100B4FF3200AE48900050C7B30097
:106FD800000CE100BCFF3200B6FF3700FE00900055
:106FE8000070200000806000960432006E004700A8
:106FF80010C0A6000200370060002000400798007B
:107008008C0078001C00780064005000000E7800A6
:10701800110178001200BE00000F9800110F9800AF
:107028008C1F78008A9FBE000420EF000620EF0026
:1070380004F107000000E0000060EF0001003D00DF
:107048000060EC004F05BE004F0678000040E200EB
:107058000A0032008E0990001E0A900001002000EC
:1070680002002800700047000198690002106A00B9
:10707800FE0090006E004700638870000020EF005B
:10708800200F98008C1F78008A9FBE000E08900081
:107098009E0890000420EF000620EF00E9F00700AA
:1070A8000000E0000060EF00010032000060EC002A
:1070B8004F05BE004F0678000040E200490032004C
:1070C800F401470070004700B00078002001780004
:1070D800C710DE000001EB00F00F20008080600088
:1070E800E00720000080500080097800110020008F
:1070F8007400470010881000AE089000300020008F
:107108000088B900200F9800A20020001100090093
:107118000200D800200F98006000E10003003D0045
:107128001100200074004700108810002E089000FD
:10713800600010008C1F78008A9FBE000045780010
:107148000EF007000E0990009E0990008AEC0700D7
:10715800300F9800410F98000200200003F8230028
:107168003E089000CE089000B6F007000000E0004E
:107178000060EF0001003D000060EC004F05BE001C
:107188004F0678000040E2000400320011002000A1
:107198007400470010881000120037008C1F780018
:1071A8008A9FBE0002002000031224003E089000BF
:1071B800CE08900043F107000000E0000060EF00F7
:1071C800010035000060EC004F05BE004F06780056
:1071D8000040E20003003200110020007400470064
:1071E800108840002E0890006000E10003003C0079
:1071F80010C0B300204F9800020037004E50900096
:10720800204F98006E0047001080A7000E0037003E
:107218006E0047001090A6000A003700C1FF2F003B
:10722800740047001008E10005003C00AE0890001B
:10723800680047001008E10001003D000100370028
:107248000100370002023700680047001000E00024
:10725800060032006E0047001090A60003003700B9
:10726800CE00900068004700618850004E009000F2
:107278006800E1000300360080C0B300204F98008A
:10728800020037000E489000204F98008C1F7800AD
:107298008A9FBE000E0890009E0890000420EF0010
:1072A8000620EF0067F007000000E0000060EF0034
:1072B800010032000060EC004F05BE004F06780068
:1072C8000040E200720032008C1F78008A9FBE00E6
:1072D8004E559000A9EF07000001BE000E0890006F
:1072E8009E0890005CF00700000F9800110F9800AE
:1072F8006A0047001080FB0060001000004578001D
:107308009EEF07000001BE000E0890009E08900046
:1073180051F00700000F9800110F980023EE0700A6
:107328009CF40700600F9800710F98000E089000F9
:107338009E0890006E099000FE099000F0F4070086
:107348000200200003F02300DEF007000000E00048
:107358000060EF00010035000060EC004F05BE0042
:107368004F0678000040E2000B0032000E09900042
:107378009E0990000000200001F023008C1F780077
:107388008A9FBE00C2EC07004F05BE004F0678007A
:10739800000F9800110F98008C1F78008A9FBE007C
:1073A8000E0890009E08900000EE07004F05BE00F2
:1073B8004F0678006A0147001281FB000420EC00A8
:1073C800C211DD00C2B52800030241001401BE004D
:1073D8000200E1000388E1000F0039008C1F7800EB
:1073E8008A9FBE000E0890009E089000D2CC2C0008
:1073F800C3DC2300E0EB07004F05BE004F06780012
:10740800000F9800110F9800110020007400470029
:10741800108840001E0037008C1F78008A9FBE002D
:107428000E0890009E089000E0ED07004F05BE0092
:107438004F0678006A0147001281FB00C211DD0087
:10744800C2B52800030241001401BE000200E10099
:107458000388E1000E0031008C1F78008A9FBE006F
:107468000E0890009E0890000200200003122400DD
:10747800C1EB07004F05BE004F067800000F9800CB
:10748800110F9800110020007400470010881000A8
:107498006E0047001090A600490037006E004700B4
:1074A80010B0A700460037004E0090006A00E100C7
:1074B80002003400A0002000400798008C1F7800CC
:1074C8008A9FBE000E0890009E089000B7ED070046
:1074D8004F05BE004F067800300F9800410F980006
:1074E800F600470031007800210070001D003200CE
:1074F8008C1F78008A9FBE00A20020000300200095
:107508003E089000CE0890000002EB00FA08070041
:107518004F05BE004F0678006000E1006088E1007A
:1075280010003A00CE0090006800470061885000C3
:107538008C1F78008A9FBE00A20020000300200054
:107548003E089000CE0890000002EB0016090700E4
:107558004F05BE004F067800300F9800410F980085
:10756800DFFF37006A0047009080FB006800470093
:107578001008E100120034006A0047009080FB0008
:1075880068004700108050008C1F78008A9FBE005A
:1075980000457800F9EE07000001BE000E089000D3
:1075A8009E089000ACEF07004F05BE004F0678001C
:1075B800000F9800110F98000E489000204F980077
:1075C8004E00900065014000EC0047006C00470049
:1075D80011081100680047001000E00004003A009C
:1075E8006E00470010B0A700010037000300370005
:1075F800EE0090006C004700618850007E0090000B
:10760800630060000000E20003003200EE0090001A
:107618006C004700618850006E0047001020A600EB
:107628002C0037006E0047001010A600100037002D
:107638006E0047001000A60003003700D0C2B30058
:107648000047980002003700B0C2B3000047980016
:107658000E409000004D780061004500000578005C
:10766800DE0890007A004700618840000A00370071
:107678006E0047001000A6000700370000C2B300E4
:10768800004D78006100450000057800DE08900094
:107698007A004700618840006E0090006000E100B9
:1076A8000B00340000C3B300004D780061004500B2
:1076B80000057800DE0890007A00470061884000E5
:1076C800EE0090006C00470061885000F2FF370020
:1076D8002E0037006E0047001030A7000E0037005C
:1076E8006E0090006000E1000B00340000C2B3009F
:1076F800004D78006100450000057800DE08900024
:107708007A00470061884000EE0090006C00470056
:1077180061885000F2FF37006E0047001010A60085
:10772800100037006E0047001000A6000300370065
:10773800D0C2B3001047980002003700B0C2B300AF
:10774800104798001E409000004D780061004500E9
:1077580000057800DE0890007A0047006188400044
:107768000A0037006E0047001000A6000700370027
:1077780000C2B300004D78006100450000057800A4
:10778800DE0890007A004700618840008C1F78006E
:107798008A9FBE000E0890009E08900003ED070027
:1077A800300F9800410F98006A0047001080FB00D6
:1077B800C200DD00C0B52800810040001101BE00F4
:1077C8003E089000CE0890000002EB007608070003
:1077D8004F05BE004F06780002032000030020007A
:1077E80002004000004D7800610045000005780067
:1077F800DE0890007A004700618840006800470072
:107808001000E00004003A006E00470010B0A70026
:10781800010037003C003700E0C2B300004D78009B
:107828006100450000057800DE0890007A004700F6
:10783800618840006A0047001081FB00E8004700AB
:1078480068004700110811006A0047001004E000B2
:107858001F00320011C0B3006A00470010C81000B2
:107868006A0047001080FB00C200DD00C0B5280098
:10787800810040001101BE008C1F78008A9FBE0065
:107888003E089000CE0890000002EB004608070072
:10789800A2002000030020000002EB0016080700E9
:1078A8004F05BE004F0678000203200003002000A9
:1078B80000004100004D7800610045000005780097
:1078C800DE0890007A00470061884000DEFF37003C
:1078D800680047001000E0000B00320000C3B3004E
:1078E800004D78006100450000057800DE08900032
:1078F8007A00470061884000CE0090006800470089
:1079080061885000F2FF37006E0047001050A60053
:107918000800370050C4B300004D780061004500EE
:1079280000057800DE0890007A0047006188400072
:107938000700370050C6B300004D780061004500CD
:1079480000057800DE0890007A0047006188400052
:107958002E0890006000E1000B003D00AE0890008A
:107968007400470060881000D0C2B300004D780052
:107978006100450000057800DE0890007A004700A5
:107988006188400007003700B0C2B300004D78009E
:107998006100450000057800DE0890007A00470085
:1079A800618840002E089000A20020001100090004
:1079B8000200D8008000780000032000008040000A
:1079C800004D78006100450000057800DE08900051
:1079D8007A004700618840002E089000A20020002D
:1079E800110009000200D8000003200000804000B8
:1079F800004D78006100450000057800DE08900021
:107A08007A004700618840006E0047001030A600E9
:107A18000E0037006E0090006000E1000B0034009B
:107A280000C2B300004D78006100450000057800F1
:107A3800DE0890007A004700618840006E009000E0
:107A48000020ED0060079800F5FF3A00CFFB3700F3
:107A58006E0047001090A600670037002E089000BF
:107A68006000E10005003D002E0890006101500013
:107A7800E800470068004700110811008C1F7800D3
:107A88008A9FBE000E0890009E08900047EC0700F1
:107A98004F05BE004F067800300F9800410F980040
:107AA80010C0B300204F98006A0047001080FB0008
:107AB8006A00E100100032006A0047001080FB00F5
:107AC800C200DD00C0B5280081014000B300780085
:107AD80023017800760047003008E1002090E1009B
:107AE800010036000400370011C0B3006A004700E7
:107AF80010C84000ECFF37006A0047001081FB0007
:107B0800E800470068004700110811008C1F780042
:107B18008A9FBE003E089000CE0890009DF20700A4
:107B2800600F9800710F98000E0890009E08900052
:107B38006E099000FE099000F1F207000017980006
:107B4800111798000E4D90008CED07000E11900053
:107B58009E11900008EA07000200200003F02300AD
:107B6800CBEA070011EC07004F05BE004F0678006E
:107B7800300F9800410F9800680047001000E0009F
:107B88001D0032008C1F78008A9FBE00A2002000D2
:107B9800030020003E089000CE0890000002EB0091
:107BA800550707004F05BE004F0678006000E1004A
:107BB8006088E10010003A008C1F78008A9FBE00A0
:107BC800A2002000030020003E089000CE0890008C
:107BD8000002EB00740707004F05BE004F0678004F
:107BE800300F9800410F9800CE00900068004700C1
:107BF80061885000E0FF37004E0090006C00E10003
:107C08000B003C008C1F78008A9FBE000E4D900030
:107C1800FCEC07000E0990009E0990009CEA070002
:107C28004F05BE004F067800000F9800110F98000E
:107C38008C1F78008A9FBE000E0890009E08900056
:107C48000420EF000620EF00FEED07000000E00032
:107C58000060EF00010032000060EC004F05BE003C
:107C68004F0678000040E200390032008C1F78008F
:107C78008A9FBE000E0890009E089000CBEB07007C
:107C88004F05BE004F0678006000E1006088E10003
:107C98002F003A002E0890006100E1002C0034000B
:107CA8008C1F78008A9FBE004E55900033ED070068
:107CB8000001BE000E0890009E089000E6ED070047
:107CC800F205270093082400DEED07000000E0001D
:107CD8000060EF0001003D000060EC004F05BE00B1
:107CE8004F0678000040E2000400320091002000B6
:107CF800740047001088100003003700810020003E
:107D080074004700108810008C1F78008A9FBE00FE
:107D18004E55900019ED07000001BE000E089000B6
:107D28009E089000CCED0700A0EB07004F05BE00B1
:107D38004F067800300F9800410F98000020EF00A0
:107D48000220EF00000F9800110F9800170037006D
:107D58008C1F78008A9FBE000E0890009E08900035
:107D680092EB0700300F9800410F98003E089000F2
:107D7800CE08900007F20700600F9800710F980076
:107D88000E0890009E0890006E099000FE09900071
:107D98005BF207004F05BE004F067800000F980001
:107DA800110F98000020EF00200F980010C0B300BA
:107DB800204F98006A0047001080FB006A00E1002D
:107DC800100032006A0047001080FB00C200DD008E
:107DD800C0B5280081014000B30078002301780075
:107DE800760047003008E1002090E10001003600ED
:107DF8000400370011C0B3006A00470010C84000F3
:107E0800ECFF37006A0047009080FB0068004700DD
:107E1800908040007400470010814000EC0047004B
:107E28006C004700110811006E00470010B0A70051
:107E380004003700680047001000E00001003A0025
:107E480003003700EE0090006C0047006188500086
:107E58007E009000630060000000E2000300320032
:107E6800EE0090006C004700618850006E004700EB
:107E78001020A6002C0037006E0047001010A60046
:107E8800100037006E0047001000A60003003700FE
:107E9800D0C2B3002047980002003700B0C2B30038
:107EA800204798002E409000004D78006100450062
:107EB80000057800DE0890007A00470061884000DD
:107EC8000A0037006E0047001000A60007003700C0
:107ED80000C2B300004D780061004500000578003D
:107EE800DE0890007A004700618840006E0090002C
:107EF8006000E1000B00340000C3B300004D7800BF
:107F08006100450000057800DE0890007A0047000F
:107F180061884000EE0090006C00470061885000C6
:107F2800F2FF37002E0037006E0047001030A70020
:107F38000E0037006E0090006000E1000B00340076
:107F480000C2B300004D78006100450000057800CC
:107F5800DE0890007A00470061884000EE0090003B
:107F68006C00470061885000F2FF37006E00470040
:107F78001010A600100037006E0047001000A60081
:107F880003003700D0C2B300304798000200370022
:107F9800B0C2B300304798003E409000004D7800D2
:107FA8006100450000057800DE0890007A0047006F
:107FB800618840000A0037006E0047001000A600E4
:107FC8000700370000C2B300004D7800610045008B
:107FD80000057800DE0890007A00470061884000BC
:107FE8002E49900011C0B3006A00470010C8100065
:107FF8000440E2001C0032006A0047001080FB00C9
:10800800C200DD00C0B52800810040001101BE009B
:108018008C1F78008A9FBE003E089000CE08900012
:108028000002EB0060060700A20020000300200009
:108038000002EB00300607004F05BE004F0678002F
:10804800020320000300200000004100004D7800DA
:108058006100450000057800DE0890007A004700BE
:1080680061884000DEFF37002E0890006000E100C4
:108078000B00340000C3B300004D780061004500D8
:1080880000057800DE0890007A004700618840000B
:10809800110020007400470010881000F2FF37001C
:1080A8004E0090006800E1000300340080C0B30077
:1080B800204F9800020037000E489000204F98008B
:1080C8006A0047001081FB00E8004700680047008D
:1080D800110811006A0047001004E00004003A008B
:1080E8006E00470010B0A7000100370007003700F6
:1080F800E0C2B300004D780061004500000578003B
:10810800DE0890007A004700618840008C1F7800E4
:108118008A9FBE002E4D900018EC07000E099000B3
:108128009E09900094E80700D1ED07004F05BE00B6
:108138004F067800300F9800410F98006A004700FA
:108148001004E0001F00320011C0B3006A004700AD
:1081580010C810006A0047001080FB00C200DD0054
:10816800C0B52800810040001101BE008C1F7800B6
:108178008A9FBE003E089000CE0890000002EB00E7
:1081880009060700A2002000030020000002EB00FF
:10819800D90507004F05BE004F06780002032000EE
:1081A8000300200000004100004D780061004500F8
:1081B80000057800DE0890007A00470061884000DA
:1081C800DEFF3700680047001000E0000B003200B7
:1081D80000C3B300004D7800610045000005780039
:1081E800DE0890007A00470061884000CE009000C9
:1081F8006800470061885000F2FF37006E004700B2
:108208001030A6000E0037006E0090006000E100FC
:108218000B00340000C2B300004D78006100450037
:1082280000057800DE0890007A0047006188400069
:108238006E0090000020ED0060079800F5FF3A00FE
:10824800D2F93700010C20006E0047001080600052
:108258006000E10024003A006E0047001040A600CC
:10826800090037008C0078001C007800640050007A
:10827800000E7800110178001200BE00300F98003F
:10828800410F9800090037008C0078001C00780026
:1082980000A0ED00000E78001100780010007800B2
:1082A800CF80DE00300F9800410F98003E08900004
:1082B800CE0890006000E1006088E10009003D0000
:1082C800FE0090006E004700638870003E08900032
:1082D800CE08900060001000E0801800300F980071
:1082E800410F9800150037006E0047001040A600A7
:1082F800090037008C0078001C00780064005000EA
:10830800000E7800110178001200BE00300F9800AE
:10831800410F9800090037008C0078001C00780095
:1083280000A0ED00000E7800110078001000780021
:108338008000EB00300F9800410F98004E0090002D
:108348006000E10008003A003E089000CE08900066
:108358006000E1006088E10003003A00CE00900070
:108368006800470061884000010C20006E0047004B
:1083780010806000004278004500370010C0B3004C
:10838800204F98006A0047001080FB006A00E10057
:10839800100032006A0047001080FB00C200DD00B8
:1083A800C0B5280081014000B3007800230178009F
:1083B800760047003008E1002090E1000100360017
:1083C80004003700AE4890006A00470061C84000CA
:1083D800ECFF37003900370010C0B300204F980079
:1083E8006A0047001080FB006800E10010003200BE
:1083F8006A0047001080FB00C200DD00C0FB2800B7
:1084080081014000B300780023017800760047001E
:108418003008E1002090E100010036000400370038
:10842800AE4890006A00470061C84000ECFF370082
:108438002200370010C0B300204F98006A004700A0
:108448001080FB006C00E100100032006A00470059
:108458001080FB00C200DD00608A28008101400016
:10846800B300780023017800760047003008E10067
:108478002090E1000100360004003700AE4890006B
:108488006A00470061C84000ECFF37000B00370066
:108498006024E100B9FF320000CCB3000024E10001
:1084A800B6FF320000C8B3000024E100CAFF320062
:1084B80000C4B3000024E100DEFF32006A00470078
:1084C8009080FB00680047001008E10003003D00B1
:1084D8000E489000204F9800080037006A004700B7
:1084E8009080FB00680047001008E100030034009A
:1084F8006A0047001080FB00400798006C004700A6
:108508001000E000070032007E0090006300600069
:108518000000E20003003200EE0090006C0047000B
:1085280061885000EE009000680047001008E100E4
:10853800050034006E019000E80047006C00470019
:1085480011085100020037000020EF006007980072
:10855800FE009000408C2000808060000084200095
:108568000008E10007003A006C0047001000E00036
:1085780003003200EE0090006C0047006188500054
:108588000F003700FE009000008C20008080600003
:10859800008820000008E10009003A006E00900001
:1085A8006200E10004003400EE0090006C00470017
:1085B80062885000020037000020EF006007980032
:1085C8006E0047001020A600490037006E004700E3
:1085D8001010A600100037006E0047001000A6001B
:1085E80003003700D0C2B3004047980002003700AC
:1085F800B0C2B300404798004E409000004D78004C
:108608006100450000057800DE0890007A00470008
:1086180061884000270037006E0047001000A60060
:108628000800370000C2B300004D78006100450023
:1086380000057800DE0890007A0047006188400055
:108648001C003700FE009000008C20008080600035
:10865800008820000008E10016003A0000C3B300BB
:10866800004D78006100450000057800DE089000A4
:108678007A004700618840006E0047001050A6004D
:108688000300370080C5B300504798000200370048
:1086980080C7B300504798005E409000004D7800B6
:1086A8006100450000057800DE0890007A00470068
:1086B800618840006C0047001000E0000B003200A9
:1086C80000C3B300004D7800610045000005780044
:1086D800DE0890007A004700618840006E00900034
:1086E8000020ED0060079800F5FF3A0058003700B9
:1086F8006C0047001000E0000E0032006E004700DA
:108708001030A7000B00370000C2B300004D7800FE
:108718006100450000057800DE0890007A004700F7
:10872800618840006E0090000020ED00600798000E
:10873800F5FF3A006E0047001010A6001000370041
:108748006E0047001000A60003003700D0C2B30037
:108758006047980002003700B0C2B3006047980035
:108768006E409000004D78006100450000057800DB
:10877800DE0890007A004700618840000A00370050
:108788006E0047001000A6000700370000C2B300C3
:10879800004D78006100450000057800DE08900073
:1087A8007A00470061884000FE009000008C20009D
:1087B80080806000008420000008E10008003A0082
:1087C80000C3B300004D7800610045000005780043
:1087D800DE0890007A004700618840001C003700DE
:1087E800FE009000008C200080806000008820003F
:1087F8000008E10016003A0000C3B300004D7800FD
:108808006100450000057800DE0890007A00470006
:10881800618840006E0047001050A6000300370032
:1088280080C5B300704798000200370080C7B300C6
:10883800704798007E409000004D78006100450028
:1088480000057800DE0890007A0047006188400043
:108858006A0047009080FB00680047001008E100AC
:1088680008003D0000C3B300004D780061004500DA
:1088780000057800DE0890007A0047006188400013
:10888800F3FF37004E019000CE00900068004700CB
:10889800618850000400E2006B003200010C2000E7
:1088A8006E00470010806000006798005200370093
:1088B8004E009000C200DD00C0B5280081004000D5
:1088C8001101BE008C1F78008A9FBE003E089000F0
:1088D800CE0890000002EB0033040700A20020003D
:1088E800030020000002EB00030407004F05BE0050
:1088F8004F06780003C3B3006A01470003494000EC
:10890800490037006E0047001050A60014003700D9
:108918004E009000C200DD00C0FB2800810040002E
:108928001101BE008C1F78008A9FBE003E0890008F
:10893800CE0890000002EB001B0407004F05BE00A4
:108948004F0678006F016000E0816000D0162900B2
:108958008200400011407800204F98001300370033
:108968004E009000C200DD00C0FB280081004000DE
:108978001101BE008C1F78008A9FBE003E0890003F
:10898800CE0890000002EB00070407004F05BE0068
:108998004F0678006F016000E0816000C015290073
:1089A8008200400011407800204F98001E003700D8
:1089B8004E009000C200DD00608A2800810040005F
:1089C8001101BE008C1F78008A9FBE003E089000EF
:1089D800CE0890000002EB00F30307004F05BE002D
:1089E8004F0678006701600001C3B3006A004700C2
:1089F800014841000C0037008E609000600CE100D7
:108A0800ABFF320000CCB300000CE100A8FF32003D
:108A180000C8B300000CE100BAFF320000C4B30084
:108A2800000CE100E2FF32002E489000004D780073
:108A38006100450000057800DE0890007A004700D4
:108A4800618840008FFF37006E0047001030A60095
:108A58000E0037006E0090006000E1000B0034004B
:108A680000C2B300004D78006100450000057800A1
:108A7800DE0890007A004700618840006E00900090
:108A88000020ED0060079800F5FF3A00BFF73700B7
:0C8A98005E0890000080FA00000006005C
:103418000000FA0090C3B3000054E10005003E002C
:1034280000C3B3000054E1000200390010C0B3002B
:10343800010037000020EF000080FB000080FA0048
:04344800000006007A
:103184000400FA006054E10052003D000A00FB0014
:10319400E000100001457800E0C6B300000CE10037
:1031A4002C0035000A00FB00420620001100090033
:1031B4000200D80072004000C200DD00807A2800BE
:1031C400010140001200BE0000079800110798009A
:1031D4000A00FB0042062000110009000200D8008A
:1031E40001007800A2002000110009000200D800AC
:1031F40069004000C200DD00807A280081004000A0
:103204001101BE000E0090009E0090008A1F7800FD
:103214005AFC07004F057800000798001107980032
:103224000A00FB00A2002000110009000200D800DF
:1032340001007800C200DD00807A2800810040008F
:103244001101BE000E0090009E0090004BFC070090
:103254006E0037006A54E100180034000A00FB00D5
:10326400A2002000110009000200D80069004000FB
:10327400C200DD00807A2800010140001200BE0077
:1032840000079800110798000A00FB00A200200024
:10329400110009000200D80001007800C200DD001E
:1032A400807A2800810040001101BE000E009000C9
:1032B4009E00900031FC0700540037000A00FB0018
:1032C400C200DD00807A2800010140001200BE0027
:1032D4004E003700E0C6B3000054E1002C00350076
:1032E4000A00FB0042062000110009000200D80079
:1032F40072004000C200DD00C07D280001014000D2
:103304001200BE0000079800110798000A00FB0095
:1033140042062000110009000200D80001007800D4
:10332400A2002000110009000200D800690040003A
:10333400C200DD00C07D2800810040001101BE00F4
:103344000E0090009E0090008A1F78000BFC07007E
:103354004F05780000079800110798000A00FB0049
:10336400A2002000110009000200D800010078002A
:10337400C200DD00C07D2800810040001101BE00B4
:103384000E0090009E009000FCFB07001F00370019
:103394006A54E100180034000A00FB00A200200077
:1033A400110009000200D80069004000C200DD00DD
:1033B400C07D2800010140001200BE0000079800F3
:1033C400110798000A00FB00A20020001100090068
:1033D4000200D80001007800C200DD00C07D280092
:1033E400810040001101BE000E0090009E0090007C
:1033F400E2FB0700050037000A00FB00C200DD0005
:10340400C07D2800010140001200BE000080FA00C7
:0434140000000600AE
:102380000000FA0002000700D6120400000000005E
:10239000889FBE008A9FBE008C1F78003000070017
:1023A0003700330003866C006450E10024003200E3
:1023B0006420E100270032006150E1002200320079
:1023C0006120E100210032008B854200EB07B10063
:1023D0000134B800003AB8000804420089844A0079
:1023E000013AB8000030B8008880400009014A0076
:1023F00004003300000040008180480002014900D1
:102400008B05E900C909DD0083017000010032007D
:1024100013002000C814DE004814DD004709DE0068
:102420001200B200C808DE00088470002400070013
:1024300001F0A1000CF0A70003E0A800190037008C
:102440006120E1001B0032000881BE000280BE0056
:10245000F7FF37006150E100FCFF3A00150037003C
:102460000084BE003C0007000083BE000485BE005F
:102470000280BE0038000700844F7500000006008F
:102480000280BE006450E100050036006420E100D7
:10249000020036000968A30001003A000880BE006F
:1024A00002C0A8004F0678004F05BE004F04BE00D2
:1024B00000000600F0FF2F00F1FF2700F9FF3700B2
:1024C00081002000618055000B003D000B002000C2
:1024D00061FE2F000100E1001D00340082817100C7
:1024E000610164008904D1000884D3000000E80081
:1024F000FAFF3A00710020006100640003007000E0
:10250000020060000900320061044400E0844C00D5
:102510000988A500050032008B05E8006808E10085
:1025200002003A008904D1000884D300F20F200091
:102530000258E10005003D00C75DDD00F907B2006B
:102540008980750008008800000006000BF827004D
:102550001B00880000000500C70ADE00F107B2007A
:10256000F50FB20008003200E1CF42000200320055
:1025700002E0A80024000500810F70000100320075
:102580000408050044000500810F700002003A00B5
:10259000140005008502E9000000400081C04800E9
:1025A000FCFF3B0002E0A800240005000080FA00C8
:0425B0000000060021
:10300C000400FA00E0C6B3000054E10031003900BE
:10301C000A80FB0042062000110009000200D800C3
:10302C0072004000C200DD00807A280001014000DF
:10303C001200BE008A1F78000200200003F023005B
:10304C00CCFC07004F05780000079800110798008A
:10305C000A80FB0042062000110009000200D80083
:10306C0001007800A2002000110009000200D80025
:10307C0069004000C200DD00807A28008100400019
:10308C001101BE000E0090009E0090008A1F780077
:10309C00B8FC07004F05780000079800110798004E
:1030AC000A80FB00A2002000110009000200D800D9
:1030BC0001007800C200DD00807A28008100400009
:1030CC001101BE000E0090009E009000A9FC0700AC
:1030DC00270037006A54E1001D0036000A80FB000F
:1030EC00A2002000110009000200D8006900400075
:1030FC00C200DD00807A2800010140001200BE00F1
:10310C008A1F78000200200003F0230099FC0700BE
:10311C004F05780000079800110798000A80FB0003
:10312C00A2002000110009000200D8000100780064
:10313C00C200DD00807A2800810040001101BE0031
:10314C000E0090009E0090008AFC070008003700DB
:10315C000A80FB00C200DD00807A280001014000DB
:10316C001200BE000200200003F0230081FC0700C7
:08317C000080FA0000000600CB
:10344C000000FA001400200057FC07000080FA006E
:04345C000000060066
:1025B4000000FA00020007004813040000000000B5
:1025C400841F7800140007004F00780011003300C6
:1025D400F0FF2F00838F6C0006003B0004056500AC
:1025E4000A00A7000800370009F0A6001000200028
:1025F40008003700820F5400838F5C000300390009
:102604001000200001003E000000200009F0A70097
:102614000000EA00000006000084BE000600070077
:102624000083BE000485BE000280BE0002000700D5
:10263400844F750000000600C70ADE00F107B200EF
:10264400F50FB20008003200E1CF42000200320070
:1026540002E0A80024000500810F70000100320090
:102664000408050044000500810F700002003A00D0
:10267400140005008502E9000000400081C0480004
:10268400FCFF3B0002E0A800240005000080FA00E3
:04269400000006003C
:1036CC000000FA00F4FF2F00B7FB07000080FA009F
:0436DC0000000600E4
:103460000000FA0002000700621B040000000000D8
:10347000889FBE008A9FBE008C1F78003E00070018
:103480004500330003866C006450E1002E003200DA
:103490006420E100330032006150E1002F0032006F
:1034A0006120E1003100320085855500EB07B00056
:1034B000090020000804200005003700080444002B
:1034C00089844C000A0031000603430087834B00C7
:1034D0000001530081815B00F8FF33000283BE00CE
:1034E0001000A8000804440089844C00F6FF39004D
:1034F000C639DD0083017300010032001300200093
:103500008904D1000884D3000998A3000500320083
:103510000800A7000600A8008904D1000884D30091
:103520008B05E8008904D1000884D3000001EB007A
:103530000281D2002800070001F0A1000CF0A700D2
:1035400003E0A8001D0037006420E1001F003200E6
:103550000881BE000280BE00F7FF37006120E10055
:103560001A0032006000B800F3FF370000002000AE
:1035700001F82700F0FF37000084BE003C00070080
:103580000083BE000485BE000280BE003800070034
:10359000844F7500000006000280BE006450E10008
:1035A000050036006420E100020036000968A3002F
:1035B00001003A000880BE0002C0A8004F06780053
:1035C0004F05BE004F04BE0000000600F0FF2F00B4
:1035D000F1FF2700F9FF37008100200061805500CE
:1035E0000B003D000B00200061FE2F000100E100F8
:1035F0001D00340082817100610164008904D100E2
:103600000884D3000000E800FAFF3A0071002000AF
:1036100061006400030070000200600009003200D5
:1036200061044400E0844C000988A50005003200D4
:103630008B05E8006808E10002003A008904D10027
:103640000884D300F20F20000258E10005003D007D
:10365000C75DDD00F907B2008980750008008800A9
:10366000000006000BF827001B0088000000050082
:10367000C70ADE00F107B200F50FB2000800320001
:10368000E1CF42000200320002E0A8002400050061
:10369000810F70000100320004080500440005009D
:1036A000810F700002003A00140005008502E90055
:1036B0000000400081C04800FCFF3B0002E0A80081
:0C36C000240005000080FA000000060055
:102BB4000000FA00020007004216040000000000B2
:102BC4000081BE00190007000470A70003F0A100F3
:102BD40003F8A30013003A006509B10010003200A5
:102BE400090035006928E1000200350001002800D1
:102BF4000000050000004000818048008502E900D3
:102C0400FCFF3A0000000600F88F42000500350082
:102C14008100D1000080D3008502E800FCFF3A0067
:102C2400000006008000EB0000000500C70ADE007B
:102C3400F107B200F50FB20008003200E1CF420004
:102C44000200320002E0A80024000500810F700099
:102C5400010032000408050044000500810F7000E3
:102C640002003A00140005008502E900000040005B
:102C740081C04800FCFF3B0002E0A80024000500DE
:082C84000080FA0000000600C8
:10459C000000FA0002000700802304000000000065
:1045AC000400E20006003A000005EB000200E20005
:1045BC000F003E000000E200270032000C00370024
:1045CC00A10088000200E2000400350008003C0055
:1045DC000000E200200032000500370060001000EF
:1045EC00E080180002003B0001F02C001A0037009C
:1045FC000084BE006011B8006B0920000982CF0056
:10460C00020039000882CF000441B0006942520018
:10461C000E00320008003B008281710061016400D1
:10462C008904D1000884D3008B05E8000442E8001B
:10463C00F9FF3A00050037000804440089844C0057
:10464C008B05E9000442E900FBFF3A000300070078
:10465C000AF0A70003E0A80000000600810020007B
:10466C00618055000B003D000B00200061FE2F0007
:10467C000100E1001D0034008281710061016400C1
:10468C008904D1000884D3000000E800FAFF3A0046
:10469C0071002000610064000300700002006000E3
:1046AC000900320061044400E0844C000988A50034
:1046BC00050032008B05E8006808E10002003A00B2
:1046CC008904D1000884D300F20F20000258E100C5
:1046DC0005003D00C75DDD00F907B200898075005B
:1046EC0008008800000006000BF827001B0088005B
:0C46FC00000005000080FA00000006002D
:104708000000FA0007E0AA00E1F707000080FA00BD
:044718000000060097
:102698000000FA0002000700B41404000000000063
:1026A800889FBE008A9FBE008C1F780059000700D3
:1026B800600033006450E1004F0032006420E10004
:1026C8005200320003826C0007003B000905D0006D
:1026D8000306D000820F54000C065D00020039008A
:1026E8000200320039008800C30088008582550046
:1026F80004003D000003FD008103FD008502EA009F
:102708008B854200840F720002003B0060001000BD
:10271800E08018006011B8000005EB007A28E1009D
:102728000A00390006008800C75DDD00F707B2001F
:10273800878075002D003700828171002A0088008B
:10274800610560008180D1000080D3008502E90026
:10275800F9FF3B00060440008784480002003B0064
:1027680060041400E0841C000988A30007003200FC
:102778008A81710082817100610164008904D1003D
:102788000884D3008B05E800170037000978A300F8
:1027980013003A001600E200130034008B05E9002C
:1027A8000804440089844C000A4474000978A30092
:1027B8000D003A001600E200070034008B05E9001E
:1027C8000804440089844C0001003A000B002000F2
:1027D8000978A300F7FF32000001EB000200370080
:1027E800828171002A008800220007000CF0A700EF
:1027F80003E0A800180037006420E10002003A0056
:10280800838F6C00180033000881BE000280BE0070
:10281800110037000084BE003C0007000083BE00A2
:102828000485BE000280BE0038000700844F750092
:10283800000006000280BE006450E100050036007A
:102848006420E100020036000968A30001003A0094
:102858000880BE0002C0A8004F0678004F05BE00E1
:102868004F04BE0000000600F0FF2F00F1FF270014
:10287800F9FF370081002000618055000B003D0002
:102888000B00200061FE2F000100E1001D00340054
:1028980082817100610164008904D1000884D30039
:1028A8000000E800FAFF3A007100200061006400AF
:1028B8000300700002006000090032006104440057
:1028C800E0844C000988A500050032008B05E8006B
:1028D8006808E10002003A008904D1000884D300A6
:1028E800F20F20000258E10005003D00C75DDD0041
:1028F800F907B2008980750008008800000006000A
:102908000BF827001B00880000000500C70ADE003E
:10291800F107B200F50FB20008003200E1CF420023
:102928000200320002E0A80024000500810F7000B8
:10293800010032000408050044000500810F700002
:1029480002003A00140005008502E900000040007A
:1029580081C04800FCFF3B0002E0A80024000500FD
:082968000080FA0000000600E7
:103878000000FA0002000700B01C0400000000006D
:103888000081BE001F0007000470A70003F0A1001C
:103898006509B100160032000D0035006828E10006
:1038A80006003500F0FF2F00F1FF27000600E200B8
:1038B80013003B0001002800000005000000400044
:1038C800818048008502E900FCFF3A0008003700C3
:1038D800F88F420002003C008000EB000000050069
:1038E8008100D1000080D3008502E800FCFF3A0087
:1038F8000600E20002003B0060001000E0801800B3
:1039080000000600C70ADE00F107B200F50FB2009A
:1039180008003200E1CF42000200320002E0A800B5
:1039280024000500810F7000010032000408050022
:1039380044000500810F700002003A0014000500E1
:103948008502E9000000400081C04800FCFF3B0000
:1039580002E0A800240005000080FA00000006002C
:109520000000FA008C1F78004EB997000A0037003F
:109530000620EF0013003700130020001100370051
:10954000230020000F003700330020000D003700FB
:109550000620EF000B0037006168E100F4FF3200E5
:109560006868E100F4FF3200000420000068E100B8
:10957000F3FF3200001020000068E100F2FF32002B
:10958000F3FF37006100560000067800300020002D
:109590000060B80000067800041820004100DD00DB
:1095A000800042000020EF00800878004160DD006C
:1095B00000004200E20040000020EF008008780038
:1095C0004160DD0000004200E40050000020EF0098
:1095D000800878006210E1000D003A00831F7800D7
:1095E0000D06780014F20700CF0178000CA1B70037
:1095F0000621EF001021EF00C418DD00001120004B
:109600001088700011E1A8000C81BF00160037001F
:109610006310E10013003A004160DD0000004200E9
:10962000E4004000110078006800700080087800B5
:10963000831F78000D067800FFF10700CF01780046
:109640000EA1B7000A21EF001221EF00C418DD00BF
:10965000201120001088700013E1A8000E81BF00C7
:1096600001003700F0FF2F004F0678000080FA005D
:0496700000000600F0
:105E38000400FA00AD0E070000079800110798004B
:105E48007B0F07008C1F78008A9FBE000001780036
:105E58008001EB00803E2000010020000082EB0062
:105E6800D10E07004F05BE000E0190009E01900064
:105E7800950E07000A01BE000002EB00CA0E0700DB
:105E88004F0678000C0178008001EB000002EB005F
:105E9800C50E070061005000E08058000080FA003D
:045EA80000000600F0
:1094DC000000FA0061405500004578008A80FB00CE
:1094EC00300020000008B800004578000218200069
:1094FC000080FB004100DD0000004100E400400062
:10950C001100780066007000800878000080FA0076
:04951C000000060045
:10A1140000032000000045000B1878000C107800A4
:04A124000000060031
:109EA8000200FA008B1F78008C1F78008D1F780045
:109EB800BEB897004EB997009EB997002EBA970082
:109EC800FEB297000EBB9700C8A2A900CCA2A800BA
:109ED8000B1D78000C157800640045000118780007
:109EE8000210780068004500031878000410780014
:109EF8006C004500051878000610780070014500D0
:109F08000020EF000220EF000089BE007401450028
:109F18000020EF000220EF000089BE007801450014
:109F28000020EF000220EF000089BE007C01450000
:109F38000020EF000220EF000089BE000002200090
:109F4800000145000020EF000220EF000089BE005C
:109F5800400220000001450000002000812C240060
:109F68000089BE008002200000014500000020009A
:109F7800010A24000089BE00C0022000000145003B
:109F880000002000010E24000089BE0020032000EC
:109F98000001450000002000811C24000089BE004B
:109FA800600320000001450000002000B1362400B5
:109FB8000089BE000003200000004500000798004B
:109FC8008A1F78001D0020003C0020008A382100EC
:109FD8000B00200030002000801F78004EFD070095
:109FE8002F00B1008E009000800878001D0020002E
:109FF8004C0020008A3821000B002000300020008F
:10A00800801F780044FD07002F00B1003AC0B3005C
:10A0180030FD07004AC0B3002EFD07004F05780049
:10A02800A0032000800045000020EF008008780091
:10A03800E003200080004500A05F2200800878002F
:10A04800CF0678004F067800CF0578000080FA0028
:04A0580000000600FE
:109D50000020EF000220EF00304B8800414B8800CC
:109D60000020EF000220EF00504B8800614B88007C
:109D70000020EF000220EF00704B8800814B88002C
:109D80000020EF000220EF00504C8800614C88005A
:109D90000020EF00704C8800019920000020EF00A7
:109DA000804878000020EF000220EF00B04B8800D0
:109DB000C14B88000020EF000220EF00D04B88004C
:109DC000E14B88000020EF000220EF00F04B8800FC
:109DD000014C88000020EF000220EF00104C8800AA
:109DE000214C8800818020000020EF00804878000E
:109DF000718020000020EF00804878000180200062
:109E00000020EF0080487800B18420000020EF009F
:109E100080487800318520000020EF0080487800DD
:109E2000918420000020EF0080487800A184200069
:109E30000020EF0080487800E19B20000020EF0028
:109E400080487800F19B20000020EF0080487800D7
:0C9E50009560A8008560A90000000600D5
:109E5C008A1F78008B1F78008C1F78008D1F78006C
:109E6C001D0020004C0120009B0020002A2C20000B
:109E7C0072FD070041962000804878005196200022
:109E8C000020EF0080487800CF0678004F0678005D
:0C9E9C00CF0578004F057800000006009C
:109448000000FA000220EF00100020000B00DD00F1
:10945800000178001A0060000000E2000060EF00E0
:1094680001003A000060EC000080FB000D0068007D
:109478000000E200140032006060E10005003600E0
:1094880088F2070087F2070061005600000678009E
:10949800F9FF37001A0061000000E2000060EF00E9
:1094A80001003A000060EC000080FB000D0068003D
:1094B8000000E20003003200F00F20008000780076
:1094C8000000370000003700010078000080FA0033
:0494D800000006008A
:105EAC00575320000E20ED00FEFF3A0000000000CA
:045EBC0000000600DC
:10A9A8008A1F78008B1F78008C1F78001820EF0012
:10A9B8004BC0B3004A8920009CFB07001820EF0019
:10A9C8005BC0B3002A87200098FB07001CC0B300B7
:10A9D8006BC0B3006A8B200094FB07001820EF00BF
:10A9E8007BC0B3002A9F200090FB07004F06780029
:0CA9F800CF0578004F0578000000060035
:1098340000022000000045000B48780010022000C0
:10984400000045000C487800F40045000020EF00BB
:1098540080087800760145000020EF000220EF0028
:109864000089BE00FA0045000020EF00804878001F
:109874000420EF006A10E10006003D004110DD0005
:10988400800045000020EF00800878000420EC00F0
:08989400F8FF37000000060098
:10A87C008A1F78008B1F78008C1F78008B84200037
:10A88C00DAFB070000022000800045000020EF00EA
:10A89C008008780020022000000045008A1F780004
:10A8AC000C0820001620EF0000057800F8FB0700CC
:10A8BC004F057800200A2000800045000020EF00A2
:10A8CC0080487800300A2000000045008B8320006F
:10A8DC0000057800C5FB07004F067800CF0578000F
:08A8EC004F0578000000060092
:1097F8000000FA000A00780000017800E10140004A
:109808008B00780061804500800578001149780058
:109818001204E0000200320003007800F6FF37006F
:0C9828000A0078000080FA000000060032
:10A8F4008A1F78008B1F78008C1F7800CAF9280003
:10A90400C000070060FA07008A3E200051FA0700E1
:10A914002B0320000C0020008A992400C8F90700AA
:10A9240061E42100804878006B3B20000C0020008B
:10A93400EA772400C2F9070081E421008048780006
:10A944004B0620000C002000CA6D2400BCF907004F
:10A9540071E42100804878002B3520000C00200091
:10A964006A3B2200B6F90700D1DD21008048780057
:10A97400BB0420000C0020000A6D2400B0F907007D
:10A98400C1DD210080487800AAFA07003AAE280009
:10A994009C0007004F067800CF0578004F0578002B
:04A9A40000000600A9
:10AC08000C20EF00600920000030E1000B003D003F
:10AC180086004500114078006004E100070032001A
:10AC2800860045008A1F7800114578008FFA0700D2
:10AC38004F0578000C20EC00F2FF370000000600FA
:109674000000FA008B1F780015C0B3008A80FB003D
:109684000087200010806800004578008043800037
:109694006000E100060032002043800010017800E1
:1096A40021862000704380001108710005003700F6
:1096B4002043800010017800618620007043800000
:1096C400110861004307200004002000A286200046
:1096D40032801100A2001A0062005000E08058009D
:1096E4008A1F78000005BE0099F107004F05780035
:1096F4000A40780000E0EE000045780085417800DB
:109704000640E200210032008A80FB000380FB0057
:109714000080600006003A002043800010017800B9
:109724002186200070438000110871000500370075
:10973400204380001001780061862000704380007F
:10974400110861000380FB004100DD0080427800C5
:109754004307200004002000A2862000328011006C
:10976400A2001A007A005000E08058006600500001
:10977400E08058008A1F78000005BE0074F10700DD
:109784004F05780085417800DDFF37008043800075
:109794006000E100060032002043800010017800E0
:1097A40061862000704380001108610005003700C5
:1097B400204380001001780021862000704380003F
:1097C400110871004307200004002000A286200035
:1097D40032801100A2001A008A1F78000005BE0022
:1097E4005BF107004F057800CF0578000080FA0090
:0497F400000006006B
:105D54000A0478004001200000A0EC0090047800C0
:105D64001000F800E70020008703E9000300350075
:105D74008904D1000884D300FBFF37001200F90026
:105D8400F7FF2300878464001000E200040032005F
:105D9400F93F0900000000000804E900FAFF370099
:0C5DA4000980090000000000000006005B
:10928C000003280004A1B7008083210002A1B700CD
:10929C000021EF000000250080007800400A20002B
:1092AC00908068000000270080806000400A200049
:1092BC0090806800210588008460A9009460A80053
:0492CC000000060098
:1092580051D121000020EF00804878000A007800F2
:109268008000EB00CBEC07000001BE0000002000EE
:1092780001F8230078E8070010F2880021F288003E
:0492880000000600DC
:109044000A00FA008A1F78008B1F78008C1F7800B2
:109054008A1F78000B0078008C0078004EED070022
:1090640012F2800023F28000C4E407000007980095
:10907400110798000200200003F82300F2E807001B
:109084000000E0000060EF0001003D000060EC0023
:109094004F0578000040E200040032000000200088
:1090A40001F8230000079800110798000020EF0042
:1090B400404798004E4090006704E1005F00310093
:1090C400640047009080FB00E00020000101B8002C
:1090D40000DE2100020040006C00400010407800D7
:1090E4006004E10051003A00640047009080FB00F6
:1090F400E00020000101B80000DE21000200400071
:10910400EC00400020C0B3008048780064004700B1
:109114009080FB00E00020000101B80000DE210087
:10912400820040004E409000804878006400470070
:109134009080FB00E00020000101B80000DE210067
:109144000200400000A0EC000A0878006400470018
:109154009080FB00E00020000101B80000DE210047
:109164000200400064004000400798000E01900097
:109174009E01900000002000E12B240045E507003B
:109184000005BE00BBF207000001BE000E00900007
:109194009E0090004CE907000000E0000060EF0032
:1091A400010034000060EC000040E20005003200E1
:1091B4000E0590009E05900078F207000001BE00A5
:1091C400040037000E0590009E059000A9F20700E8
:1091D4000001BE000200BE0075E607004E019000CB
:1091E4000089BE00640047009080FB00E00020007E
:1091F4000101B80000DE210002004000E801400047
:10920400640140001200BE008089BE006400470073
:109214009080FB00E00020000101B80000DE210086
:10922400020040001040780005003700CE40900056
:109234006400470061C840009EFF370030C6B30099
:109244004F067800CF0578004F0578000080FA00BB
:049254000000060010
:105C78000000FA00C758DE000001EB00F00F20001A
:105C880080806000F00720000080500080007800CD
:105C98006000E10010003D000420EF000620EF0046
:105CA8000A00BE00E7F507000000E0000060EF0012
:105CB80001003D000060EC000040E20003003200FB
:105CC8000000200001F82B001E0037000020EF0024
:105CD8000220EF001B0037007808E10002003600C0
:105CE8000A00BE00170037008A9FBE000A00BE00E7
:105CF800DFF607000081EB0026FA07004F05BE001B
:105D08000002BE00849FBE000A01BE006DF60700B7
:105D18000000E0000060EF00010034000060EC00CB
:105D28004F02BE000040E2000500320002002000E1
:105D380003F823000400BE0071FA070001003700D1
:0C5D48000400BE000080FA00000006000D
:105BA0000000FA00C758DE000001EB00F00F2000F3
:105BB00080806000F00720000080500080007800A6
:105BC0006000E10010003D000420EF000620EF001F
:105BD0000A00BE001DF607000000E0000060EF00B4
:105BE00001003C000060EC000040E20003003200D5
:105BF0000020EF000220EF001D0037000000200011
:105C000001F823001A0037007808E100020036008E
:105C10000A00BE00160037008A9FBE000A00BE00C0
:105C200015F707000081EB005CFA07004F05BE0086
:105C30000001BE00829FBE000A01BE0003F60700FD
:105C40000000E0000060EF0001003D000060EC009B
:105C50004F01BE000040E2000400320000002000BE
:105C600001F823008CF20700010037000200BE009B
:085C70000080FA0000000600AC
:1094380051D1210010C0B300804878000000060018
:10A38C0050D12100104078006104E10035003A0002
:10A39C000820EF006720E10032003D00E0002000C3
:10A3AC000401B80000DE21000200400064014000FE
:10A3BC001200BE006000E1006088E10027003A0056
:10A3CC00E00020000401B80000DE21000200400083
:10A3DC006C004000104078006204E1001F003A005D
:10A3EC00E00020000401B80000DE21000200400063
:10A3FC00EC00400030C0B30080487800E000200042
:10A40C000401B80000DE21000200400000A0EC00B6
:10A41C0010007800841F7800000001004F027800C3
:10A42C00E00020000401B80000DE21000200400022
:10A43C00E4014000680140001200BE008089BE00AB
:10A44C00E00020000401B80000DE21000200400002
:10A45C00EC00400020C0B300804878000820EC00DD
:08A46C00CCFF370000000600E0
:10933000B400FA008A1F78008B1F78008C1F780019
:10934000600047000005780049FE07000040E20089
:1093500032003200600047007B8120000005780069
:10936000D0FD07006000E10001003A002B0037004B
:10937000600047001B81200000057800C9FD070040
:109380006000E10001003A0024003700600047005F
:109390004CC0B300CB80200000057800FE0407001D
:1093A0006000E10005003A00600047008005780099
:1093B0008AD12100EDF40700180037006000470053
:1093C0004CC0B3002B83200000057800F204070096
:1093D0006000E10005003A00600047008005780069
:1093E0008AD12100E1F407000C003700600047003B
:1093F00090407800E0C3B300000CE10005003A00A3
:1094000060004700800578008AD12100D7F407006A
:1094100002003700DA102900FB050700BAED07004B
:10942000D2EC07004F067800CF0578004F05780092
:089430000080FA0000000600B4
:108C70008B1F78008C1F78000420EF0050552100D6
:108C80009040780040552100100CE1001F00320098
:108C9000410B2000505521001080FB000009B80056
:108CA00080AC2000020040003C0B200080057800D2
:108CB000D3060700300B2000800045000020EF00A5
:108CC00080487800410B2000505521001080FB00A7
:108CD0000009B80080AC2000820040000020EF00B6
:108CE00080487800505521001080FB000020EC00E7
:108CF000F2002000110009000200D80050552100A8
:108D00000148780011C0B3000100370082407800AC
:108D1000014078004F067800CF057800000006007B
:10A800000000FA008A0078001800E2000E00320012
:10A81000610056000006780001017800E1814000E7
:10A820008B00780061804500800578001149780030
:10A830001204E00002003A00030178000300370030
:10A8400083007800F0FF3700010178008C00780069
:10A8500061005600000678000200E20004003200A9
:10A860000020EF00004978000420EC00F7FF3700DB
:0CA870000A0078000080FA0000000600DA
:108AA4000000FA001A04E000080032001A407800BE
:108AB4001B04E10005003A00610045000005780050
:108AC4006180450080057800F6FF37001B40780080
:108AD4009A80FB000080FB00008050000080FA00B8
:048AE4000000060088
:10A798000000FA008C4078006140560000467800BE
:10A7A8000240E200110032001A4078006004E10023
:10A7B800040032001A4078001B04E10001003A004E
:10A7C800050037001B4078009A80FB000080FB00E2
:10A7D8000080500006003700610045000005780041
:10A7E8006180450080057800EAFF37000020EF000F
:08A7F8000080FA0000000600D9
:10676C008A1F78000820EF006050E10003003A0017
:10677C00DA9B280021110700150037006058E10052
:10678C0003003A00AA9E28001C11070010003700D5
:10679C009B407800E0C3B300000CE10005003A0018
:1067AC008A1F780063F107004F057800E3F60700B5
:1067BC00070037000D0C07000800E20003003A0048
:1067CC008A1F7800D2F707004F057800DBF6070028
:0867DC004F05780000000600E3
:102D40002601FA008B1F78008C1F78008D1F7800F9
:102D5000410820008100470000002800A100090070
:102D6000B05878009B407800E0C3B300000CE1004D
:102D700001003200A0003700E180450060004700FC
:102D80008A1F7800FC072000810578000005780084
